:020000040800F2
:1000000000100020D9000008FF000008ED0D0008D6
:1000100000000000000000000000000000000000E0
:1000200000000000000000000000000003010008C4
:100030000000000000000000050100080D15000888
:100040000901000809010008090100080901000868
:100050000901000809010008090100080901000858
:100060000901000809010008990A0008F50A0008BA
:100070000901000809010008090100080901000838
:10008000090100080000000000000000090100084C
:10009000000000000901000809010008090100082A
:1000A000000000000901000809010008090100081A
:1000B00011190008000000000901000809010008EA
:1000C0000448854600F006FC00F052F8004800475E
:1000D00041450008001000200C4880F308880C48B7
:1000E0000168090E0B4A914205D10B480B4901608A
:1000F0000B480C4901600C4880470C480047FEE75C
:10010000FEE7FEE7FEE7FEE7FEE700000010002046
:10011000040000001F000000181002400100000051
:10012000000001400000000011150008C100000897
:1001300030B50B46014600202022012409E00D467F
:10014000D5409D4205D31D469540491B2546954007
:1001500040191546521E002DF1DC30BD0321001D53
:10016000401E037812021A43491EF9D51046704703
:1001700070B5054C054D03E0206800198047241D2B
:10018000AC42F9D170BD00002C710008307100083C
:10019000F8B502464A40D40F42004B0052085B08B3
:1001A0009A4202D20246084611464A0023D0C30DA5
:1001B0004A00DDB2120EAD1A202D35DA49020126B1
:1001C000490AF6058A19002C00D0524220214F1B03
:1001D0001146B9402A411018C20D9A4221D0002C74
:1001E00017D0012D08DCDA05801AD20F8019D2074A
:1001F000DBB200F070F9F8BDDA05801A0123400087
:100200001B06C01880185A428018CA0F10434900B4
:1002100007E04908C2071143DA05801A801940082F
:10022000801800F050F9F8BD61000122511A001B3E
:10023000F7E70122D2075140AAE70122D207504036
:10024000A6E7024670B54A40D30FDB0740002DD029
:100250004A002AD0010E140E000212020919400AA7
:10026000520A8418E50104465443000A120A2E0477
:100270005043A4194219200CC543AA18120C012599
:10028000AD03521C521912047F39240400D0521CB1
:10029000104301D44000491EC2B20C06C009201808
:1002A000401C4008802A02D003E0002070BD4008B6
:1002B0004000002900DA0020184370BD70B50246E6
:1002C0004A40D50F40004A00ED0740085208002878
:1002D00014D0002A12D0C40DD30D41020120C00554
:1002E0005202490A520AE41A091812187D3491423E
:1002F00001D3641C00E04900002C01DA002070BD2D
:100300000023914201D3891A034340084900002881
:10031000F7D100290AD0914202D10121C90705E095
:10032000914201D2012101E00121C943E005C01839
:10033000401900F0C8F870BD420005D04200120E0E
:1003400052428A4201DB00207047C90508187047F5
:10035000C217C10F504010B54018CA07962300219C
:1003600000F0B9F810BD10B500229623114600F038
:10037000B2F810BDC20F410040020123400ADB0564
:10038000D207090EC0187F2901DA0020704796298C
:1003900003DC9623591AC84001E096398840002AA8
:1003A000F4D040427047410040020122400AD20589
:1003B000090E80187F2901DA00207047962903DC96
:1003C0009622511AC84070479639884070470000FD
:1003D00070B5CD0F4A0009030123090B1B05194312
:1003E0000B4BED070024520D9A4201DA002070BD3C
:1003F000074B34339A4203DC9A1A00F053F802E0B8
:100400000449511888402C43F1D0404270BD00008F
:10041000FF030000CDFBFFFF4A0009030123090B86
:100420001B051943094B10B5520D9A4201DA002001
:1004300010BD064B34339A4203DC9A1A00F032F8AE
:1004400010BD03495118884010BD0000FF03000093
:10045000CDFBFFFFC20FD207400040080BD0C10DFB
:100460000723DB01C91840020905400A1143C208ED
:100470004007114370470020014670470122D20710
:10048000002800DB101A002900DB511A8142704756
:100490000122D207002800DB101A002900DB511AC4
:1004A0008842704710B5202A04DB0846203AD04025
:1004B000002110BD0B46D340D0402024A21A914009
:1004C0000843194610BD002904DA401C490001D137
:1004D00040084000704770B40024050C05D110247A
:1004E000000402D1002921D01124050E01D10002FF
:1004F0000834050F01D10001241D850F01D18000B2
:10050000A41C002801DB4000641C002908D0202521
:100510002E1B0D46F540A14000D001212943084380
:1005200001061B1B000ADB1D02D5002070BC7047B2
:10053000DB05181880180029F8DA401C4900F5D1AD
:1005400070BC40084000704710B541000DD041001C
:10055000090E962909DC7E290ADC07DB410205D059
:10056000C00F7F21C007C905401810BD002010BD75
:100570009622541A20210A1B01469140E040FFF7C1
:10058000A2FFA04010BD10B5002B08DA0024401CCB
:10059000614192185B411A4301D14008400010BDEF
:1005A000F0B51FB482B005460C0003D0084601F038
:1005B00082FA02E001F07FFA2030024600902146E4
:1005C000284600F099F9049B059A04460F46184303
:1005D0001143084314D0184610431BD00098402103
:1005E0000A1A18460599FFF75DFF05460E46009A60
:1005F0000599049800F080F9084305D0012004E033
:100600002046394607B0F0BD0020C11705430E4310
:100610002C43374300990E986305401A7905E40A84
:1006200000220C43FD0A0A3002D500200146E9E70A
:100630000105101969410C9C0D9D00196941FFF7D6
:10064000A2FFDFE7F0B507460846584087B0C00F65
:10065000049048000E46590040084908BC1A8841D9
:1006600005D2384631461E4617460B46024658000C
:10067000400810434CD0300D039040055900400D08
:10068000490D0590401A0290402872DA18030121A2
:10069000000B09050843019004980092002805D03A
:1006A0000199524200208841009201900298402115
:1006B0000A1A0199009800F01FF905460C466B468E
:1006C00007CB00F029F9C0197141039A0E0D0023E0
:1006D000D71756401A467A40164344D0049A002A47
:1006E0002DD0029A012A039A15DC1205C01A9141F5
:1006F00001263605001C7141D20F059ED2070093DA
:10070000019202962A462346FFF74AFF07B0F0BD42
:1007100038463146FAE71605224A0F46B218C01A83
:10072000B74101210905001C4F4100187F411146C6
:1007300018187941E20F10436D19644113E0E20784
:100740006D0815436408C2071443039A0126120575
:10075000C01A91413605001C7141CE074008304354
:100760004908C01851412A462346FFF70CFFCDE740
:10077000FFE7049801224000C117121A00238B41A1
:1007800004983146C417381AA141EEE730B4012469
:10079000E407634030BC55E730B40124E40761400E
:1007A00030BC4FE70000E0FFF8B5054648004008C0
:1007B0000C46284304D06000184A400D904201DDE9
:1007C0002846F8BD15493539884210DC88420BDBD4
:1007D000290D200308432903014305D0E00F1049E8
:1007E000C00741180020F8BD00200146F8BD161AC8
:1007F0004020821B2846214600F07EF807460091E3
:10080000284621463246FFF74DFE3A46009BFFF749
:10081000BAFE324600F070F8F8BD00003304000064
:100820000000F03F10B5002904DB0124E40740423A
:100830008C412146002B04DB1C460123DB0752427E
:10084000A3418B4200D1824210BD000010B50029A7
:1008500004DB0124E40740428C412146002B04DBE9
:100860001C460123DB075242A341994200D190422A
:1008700010BD000030B50446CD0FED070020054344
:1008800004D10D460121C9076442A941DD0FED07DE
:10089000284304D118460123DB07524283411846FE
:1008A000151B884101D2094806E00120400762403B
:1008B0004B401A4300D10648EFF300810902090AB0
:1008C000020E1206114381F3008830BD0000008043
:1008D00000000060064C0125064E05E0E36807CCE9
:1008E0002B430C3C98471034B442F7D3FFF7ECFB92
:1008F0000C7100082C71000810B5202A04DB014699
:10090000203A9140002010BD914020239C1A0346BC
:10091000E3401943904010BD10B5202A06DBCB17E9
:100920000846203A1041C1170B4306E00B4613411D
:10093000D0402024A21A91400843194610BD70B53A
:100940008C180578401C6B075B0F01D10378401CA5
:100950002A1106D10278401C03E006780E70401C74
:10096000491C5B1EF9D12B0705D40023521E0DD460
:100970000B70491CFAE70378401CCB1A921C03E069
:100980001D780D70491C5B1C521EF9D5A142D8D3AD
:10099000002070BD836A0B43836242617047002967
:1009A000816801D0012200E002221143816070477A
:1009B0000029C16802D00122114301E04908490021
:1009C000C1607047C26802239A43C260C2680A438A
:1009D000C2607047826800210123DB071A438260EE
:1009E0000F231B038268491CD20FD207994201D002
:1009F000002AF7D18168002901DB006C70470020D4
:100A00007047000030B5C268084B8C681A400B680C
:100A10000D792343CC686D032C4323430C6949694A
:100A200023430B431343C36030BD000003D2FFFFD9
:100A300081680422114381607047002101600171C7
:100A40008160C16001614161704700000122054978
:100A500092050028886801D0104300E09043886028
:100A6000704700000027014070B50546002003468E
:100A7000D5240DE0EA5C50400022060602D5400075
:100A8000604000E04000521CC0B2082AF5DB5B1C4D
:100A90008B42EFDB70BD000010B50021124800F062
:100AA00041F8114800213C3800F03CF80E48002184
:100AB000283800F037F80D4C0721002209022046A3
:100AC00000F075FD601500F027F80021204600F0C9
:100AD00058FD074C6068022803D10120606005F0D2
:100AE00029F90020606010BD58000240002C014030
:100AF0008803002010B501246403204600F064F848
:100B0000012802D1204600F001F810BD01494860DB
:100B10007047000000000240014948607047000033
:100B2000000002400029016802D00122114301E0C7
:100B3000014A114001607047FEFF00000168204A31
:100B4000114001600021016041608160C1601D4968
:100B50001C4A0839904202D148680F2205E0194A20
:100B60001432904204D14868F02210434860704724
:100B7000144A2832904203D148680F221202F4E747
:100B8000104A3C32904203D148680F221203ECE72E
:100B90000C4A5032904203D148680F221204E4E715
:100BA000084A6432904203D148680F221205DCE7FC
:100BB000044A78329042DAD148680F221206D4E70C
:100BC000FEFF000008000240034A014612680020B0
:100BD0000A4200D00120704700000240002A02684B
:100BE00001D00A4300E08A430260704730B50368D1
:100BF0000C4A0C6A13408A684D6922430C692C43E5
:100C000022438C692243CC6922434C6A22438C6A7A
:100C100022431A430260CA6842600A6882604968D7
:100C2000C16030BD0F80FFFF41607047002101604F
:100C300041608160C160016141618161C1610162A6
:100C40004162816270470000F0B50B2706463F0401
:100C5000384600F067F804280FD1084C20690225B7
:100C6000284320616661206940210843206138469D
:100C700000F058F82169A9432161F0BD002002402D
:100C800008490420CA68D20701D001207047CA6809
:100C9000D20601D502207047C9684907FBD5032059
:100CA0007047000000200240024801698022114381
:100CB0000161704700200240F8B5064600200B276E
:100CC0003F0400900D46384600F02CF8042815D15A
:100CD0000B4C20690121084320613580384600F023
:100CE00021F8042806D1B61C290C0096318038461C
:100CF00000F018F82169490849002161F8BD000099
:100D00000020024004480169090603D503494160F7
:100D100003494160704700000020024023016745FD
:100D2000AB89EFCD00B50346FFF7AAFF02E0FFF75E
:100D3000A7FF5B1E012803D0002B00D1052000BDBA
:100D4000002BF4D1FAE7F0B50022032501230C684B
:100D500093401C409C422AD10C79012C01D0022CDA
:100D600012D1876854002E46A640B74387604E795B
:100D7000A64084682643866084889C438480848857
:100D80008B7993401C438480066853002C469C401A
:100D9000A64306600E7907689E403E430660C6681B
:100DA000A643C660CC799C40C3681C43C460521CF7
:100DB000102ACBD3F0BD4B07DB0E9A40C90810B503
:100DC00089000818016A0F249C40A1430162016A4E
:100DD0001143016210BD0246128A00200A4200D06F
:100DE000012070470185704781617047052002F03E
:100DF000BDF90029016802D00122114301E0490830
:100E0000490001607047012292030029416801D026
:100E1000114300E09143416070470246926900200F
:100E20000A4200D00120704710B5026852085200F3
:100E300002600268134B8C681A4024024B6814430A
:100E4000234303600F230A681B069A43026102686A
:100E500001231A43026000228260C2600B698A6922
:100E60001A43826082680123DB031A438260CA68E6
:100E70000368134303604268034B49691A401143F6
:100E8000416010BDFFE0CF00FF7FFF07406AC0B2A6
:100E9000704781627047000070B5049D4468890501
:100EA000890D1204034E1143194334402943214351
:100EB000416070BD009800FC70B5074C074D21469D
:100EC000284600F0CDF82146284600F021F92146B9
:100ED000284600F075F970BD0000F041000048435D
:100EE000F8B51E4C06462068002801DC3046F8BDE7
:100EF000A168E069FFF7A5F905466168A069FFF7F9
:100F0000A0F93146FFF799F92946FFF792F905460E
:100F10004000FF214008C905081AC00F04D1284627
:100F200000F017FE002800D035466169E069FFF740
:100F300088F90090A06921690746FFF782F9064603
:100F40002846E168FFF77DF93146FFF721F900995E
:100F5000FFF71EF9E761A561F8BD0000000300205E
:100F6000F8B51E4C0646206A002801DC3046F8BD64
:100F7000A16AE06BFFF765F90546616AA06BFFF7B0
:100F800060F93146FFF759F92946FFF752F905464E
:100F90004000FF214008C905081AC00F04D12846A7
:100FA00000F0D7FD002800D03546616BE06BFFF7FD
:100FB00048F90090A06B216B0746FFF742F90646FF
:100FC0002846E16AFFF73DF93146FFF7E1F800995D
:100FD000FFF7DEF8E763A563F8BD0000000300201B
:100FE000F8B51E4C0646206C002801DC3046F8BDE2
:100FF000A16CE06DFFF725F90546616CA06DFFF768
:1010000020F93146FFF719F92946FFF712F905468D
:101010004000FF214008C905081AC00F04D1284626
:1010200000F097FD002800D03546616DE06DFFF7B8
:1010300008F90090A06D216D0746FFF702F90646FA
:101040002846E16CFFF7FDF83146FFF7A1F800995B
:10105000FFF79EF8E765A565F8BD000000030020D6
:10106000FEB50D46FFF72AF901462648FFF726F997
:1010700005F098FE01460090FFF7E3F80446019062
:10108000214801F097FE0121FFF756F90099FFF77B
:10109000D8F87F27FF053946FFF77AF82146FFF792
:1010A00077F81A4C06462560002D29DD3146019857
:1010B000FFF704F905460121E060FFF73DF965619E
:1010C000206139460198FFF7B4F80121FFF734F9A0
:1010D0003146FFF7F3F860600B48019D01F06AFEAE
:1010E0000121FFF729F90099FFF7ABF83946FFF71F
:1010F000A4F82946FFF74CF83146FFF7DFF8A06067
:10110000FEBD0000DA0F4940DA0F493F000300201E
:10111000FEB50D46FFF7D2F801462648FFF7CEF898
:1011200005F040FE01460090FFF78BF80446019061
:10113000214801F03FFE0121FFF7FEF80099FFF77B
:1011400080F87F27FF053946FFF722F82146FFF791
:101150001FF81A4C06462562002D29DD31460198FC
:10116000FFF7ACF805460121E062FFF7E5F865639B
:10117000206339460198FFF75CF80121FFF7DCF89E
:101180003146FFF79BF860620B48019D01F012FEAB
:101190000121FFF7D1F80099FFF753F83946FFF71F
:1011A0004CF82946FEF7F4FF3146FFF787F8A062B6
:1011B000FEBD0000DA0F4940DA0F493F000300206E
:1011C000FEB50D46FFF77AF801462648FFF776F898
:1011D00005F0E8FD01460090FFF733F80446019062
:1011E000214801F0E7FD0121FFF7A6F80099FFF77C
:1011F00028F87F27FF053946FEF7CAFF2146FEF78C
:10120000C7FF1A4C06462564002D29DD314601989A
:10121000FFF754F805460121E064FFF78DF8656596
:10122000206539460198FFF704F80121FFF784F89B
:101230003146FFF743F860640B48019D01F0BAFDA9
:101240000121FFF779F80099FEF7FBFF3946FEF719
:10125000F4FF2946FEF79CFF3146FFF72FF8A06404
:10126000FEBD0000DA0F4940DA0F493F00030020BD
:1012700030B5827801240178002A15D08B080E4AF7
:101280009B009A1813688907C90EFF258D40AB4350
:101290004578AD072D0E8D401D4315600078C006C2
:1012A000C00E8440054804E0C806C00E84400348D0
:1012B0008030046030BD000000E400E000E100E0A8
:1012C00070B5FF2500210446AD05C943FFF734F88A
:1012D00006460F4960100C1A21463046FEF7B1FF52
:1012E0002146FEF7AEFF2946FEF7A7FF2146FEF78F
:1012F000A8FF044601463046FEF7A3FF2146FEF74D
:10130000A0FF2946FEF799FF2146FEF79AFF70BD20
:10131000DF59375F044A0029516901D0014300E0D9
:10132000814351617047000000100240044A0029C7
:10133000D16901D0014300E08143D16170470000D1
:1013400000100240044A0029916901D0014300E0E5
:10135000814391617047000000100240F8B5464E8D
:101360000446716800200C22444D114005D0042928
:1013700003D0082903D00C2918D0256018E0716823
:10138000706803228902D2030F0F1040BF1C00288F
:1013900009D0F06A0107090F2846491CFEF7C8FE6C
:1013A0007843206004E036487843FAE73549216005
:1013B0007168354F0906090F7B5C21680A46DA40DF
:1013C000626073685B055B0FFB5CDA40A260336BA5
:1013D000DB0501D42D4B05E073685B0401D4530891
:1013E00000E09308E360336B5F06294B03D4284F7A
:1013F0001237276100E02361376BFF0601D4656176
:1014000000E06161376BBF070ED0376BBF07BF0FBE
:10141000012F0BD0376BBF07BF0F022F08D0376BE0
:10142000FF43BF0706D006E0A26104E0A16102E02D
:10143000A36100E0A561376BBF03BF0F0FD0326B14
:101440009203920F012A0CD0316B8903890F022974
:1014500009D0316B8903890F032906D006E0E261C8
:1014600004E0E16102E0E36100E0E561316B09065F
:1014700000D404482062F8BD0010024000127A0037
:1014800000093D00006CDC0290030020809FD50025
:101490000080000004490A6B10239A430A630A6B18
:1014A00002430A6370470000001002400CB50020A0
:1014B0000090019013491120086013484168416071
:1014C0004168416041687B22D20391434160416899
:1014D0000522D20411434160016801221206114322
:1014E000016001688901FCD5416889088900416073
:1014F000416802221143416041680907890F0229AE
:10150000FAD10CBD002002400010024070470000DC
:1015100010B5144801680122114301604168124A64
:10152000114041600168114A1140016001680122C7
:1015300092049143016041683F221204914341604B
:10154000C16A09090901C162016BFF22543291434A
:101550000163416B49084900416300218160FFF745
:10156000A5FF10BD001002400CB8FF08FFFFF6FEFB
:1015700080220029018801D0114300E091430180BD
:1015800070470029018802D00122114301E0490877
:1015900049000180704740300029818803D0012232
:1015A000D203114301E04904490C81807047002AAD
:1015B000828901D00A4300E08A438281704700009B
:1015C00070B5028C520852000284048C8288038B0E
:1015D0007025AB439B080D889B001D4302239C4351
:1015E0008E894B882643104C3343A04208D00F4CC1
:1015F000A04205D00E4CA04202D00E4CA0420DD10C
:101600000824A343CC891C4304239C438B88234395
:10161000094C22400C8A14434A8A22438280058363
:1016200089684163038470BD002C01400040014083
:101630000044014000480140FFFC0000028B0823E9
:101640009A430A430283704770B5028C10239A4371
:101650000284048C8288038B1A4D2B400D782D0652
:101660002D0C1D4320239C438B891B051E0C4B888E
:1016700026431B051B0C144C3343A04202D0134ECF
:10168000B04219D1124E32400E8AB604360C3243A3
:10169000A04211D18024A343CC892405240C1C43EF
:1016A00040239C438B881B051B0C2343094C224081
:1016B0004C8AA404240C22438280058389688163B8
:1016C000038470BDFF8C0000002C014000400140ED
:1016D000FFFB0000FFF70000028B034B09021A40DA
:1016E0001143018370470000FFF7000030B5028C02
:1016F000124B1A400284058C8288838B104C234045
:101700000C782406240C1C430E4B1D400B7B1B073E
:101710001B0C2B438D782D072D0C1D430A4B984233
:1017200005D10A4B13400A8A9205120C1A43828093
:10173000848389680164058430BD0000FFEF0000E8
:10174000FF8C0000FFDF0000002C0140FFBF000005
:10175000002101804180818081608181C18101827D
:10176000418270474162704710B50288144B98421D
:1017700006D00124A407A04202D0124CA04203D1FB
:101780007024A2434C8822430F4CA04203D00F4C3C
:1017900022400C89224302804A68C2620A8802857C
:1017A000984208D00A4A904205D00A4A904202D094
:1017B000094A904201D1897A01860121818210BDB6
:1017C000002C01400004004000100040FFFC00001D
:1017D0000040014000440140004801400021C9434D
:1017E00041600021018001814180817270470000C9
:1017F00010B5074C00212046FFF794F90C21204634
:10180000FFF712FA01212046FFF78CF910BD000006
:1018100044000240F0B5012106464C0495B0204634
:10182000FFF784FD01212046FFF774FD0221684681
:101830000172002484720125C572032141720420C3
:101840000927FF06019001A93846FFF77CFA01221B
:1018500002213846FFF7AFFA0E960C260F9410942B
:10186000119413940EA92748129600F0B7F801219D
:10187000244800F0A9F80121224800F070F8402126
:10188000204800F065F81C2168460170447085709E
:10189000FFF7EEFC01210846FFF73CFD1A4F3846E2
:1018A000FFF74CF917480794283003901748049025
:1018B0001020059080200890400106960C90099415
:1018C0000A940B9403A90D943846FFF78FF901226F
:1018D00002213846FFF782F901228021094800F0F1
:1018E00048F86803FFF712F900213846FFF71AF9A4
:1018F0000B216846017044708570FFF7B9FC15B084
:10190000F0BD000000440040440002406804002094
:1019100070B50D4D0D4C2946204600F039F80028D1
:1019200003D02946204600F015F80821204600F093
:1019300028F8012806D10821204600F009F82046A1
:1019400000F09AF870BD0000050105000044004059
:1019500001627047090C01228A4002627047002927
:10196000016802D00122114301E0490849000160E9
:101970007047002A826801D00A4300E08A438260EF
:1019800070470246D26900200A4200D00120704709
:1019900030B50A04130E01252A4600248A40012B83
:1019A0000ED0022B0ED08368090C1340C0698D4005
:1019B0002840002B02D0002800D00124204630BD52
:1019C0000368F1E74368EFE708220029816801D046
:1019D000114300E0914381607047000030B5044638
:1019E000006889B00D46400840002060606803210F
:1019F00009038843A9680143616020681A49EA68BD
:101A00000840696811432A69024311432160A068B4
:101A100003210902884369690143A1606846FFF711
:101A20009DFC1248844201D1069805E0104884428A
:101A300001D1079800E0029821680904296800D5BF
:101A40004000FEF775FB2A6852088A4200D8401C05
:101A50002168090404D50107064A490F10400843CC
:101A6000A08109B030BD0000F3E9FFFF003801405C
:101A700000440040F0FF0000808CC005C00D70479E
:101A80000146034888600348C86008467047000064
:101A90000AD7A33C249A843D014603488860034842
:101AA000C8600846704700000AD7A33C249A843DCA
:101AB0000021016070472021020C01D01021104646
:101AC000020A01D010460839020901D01046091F48
:101AD000820801D01046891E420801D0881E704736
:101AE000081A7047F0B4040C8BB2264682B25E43EB
:101AF0000D0C1046370C58433604801900217941EB
:101B000016466E43370C36048019794126466E43DB
:101B10008919F0BC704730B47446641E2578641C83
:101B2000AB4200D21D46635D5B00E31830BC184732
:101B30004100080200D004200A0E01D00122104307
:101B4000090EFF2901D102210843012800D10520F7
:101B50007047FF2140000906884201D101207047EB
:101B600000207047FFB581B01C4617460E0007D015
:101B7000019D02E02846B047ED192046641EF9D2C7
:101B8000019805B0F0BD10B50121FEF7D5FB10BDE1
:101B900010B500210846FEF791FB10BD5E2110B57F
:101BA000C9430807FEF7C8FB10BD0000F0B50E469C
:101BB00014465100FF22120687B0914203D311163A
:101BC000316007B0F0BD01202502C0070543E00DDC
:101BD0007838C206D20E2020871A6000000E7838AE
:101BE000401181004D4878440B189C464358002A08
:101BF00014D06046406893400146F8400343604675
:101C0000806891408646F8400143039160467146E2
:101C1000C0689140F84001430F4603E060464168C8
:101C20000391876818462946FFF75CFF02910490EC
:101C300029460398FFF756FF039106903846294638
:101C4000FFF750FF0F460698029B3D18049A039930
:101C5000BD4201D2012700E000278818C019002FDB
:101C600002D0884202D903E0884201D2012100E07B
:101C7000002159180A4620329709C20C89065203DE
:101C800040033760114301900846FEF761FB029064
:101C90000198FEF768FB1221C943FEF74DFB019046
:101CA0002846FEF760FB2521C943FEF745FB00905F
:101CB00001990298FEF76CFA0099FEF769FA012182
:101CC000C9024018050B2D0328460299FEF7B1FA08
:101CD0000199FEF7AEFA0099FEF7AFFA1049FEF748
:101CE000B0FA00900F492846FEF7ABFA0099FEF7CC
:101CF0004FFA00900C492846FEF7A3FA0099FEF728
:101D000047FA002C00DB5CE701210907C91B3160A1
:101D10000121C907484007B0F0BD0000025500008E
:101D2000DB0FC92F22AAFD290000C92F02E008C835
:101D3000121F08C1002AFAD170477047002001E045
:101D400001C1121F002AFBD1704700000149086041
:101D500070470000A803002010B5032310220B4990
:101D60000B48FFF7FFFE0A480323102209493030D1
:101D7000FFF7F8FE08480021016005480323082208
:101D800006496030FFF7EEFE10BD0000811A000822
:101D900020060020991A0008D0010020B11A00087E
:101DA000F8B5154E7F20C005374600251837B060BE
:101DB00000F028F80024A000395880190F4A02F0DA
:101DC000FEFA641C032CF6DB01F0DAFEFF20F5308E
:101DD0006D1C8542ECDB7F21C905B068FEF729FA4E
:101DE000074D0024B060A0008019294602F0C0FA17
:101DF000641C032CF7DBF8BDB00500201F856B3F8A
:101E00000000FA43F0B587B006236A463B216820FC
:101E100002F0A8F8009801990002401800B2404270
:101E2000FEF796FA0546029803990002401800B2A0
:101E3000114E4042FEF78CFA0446049805990002C0
:101E4000401800B2FEF784FA01460120C007414065
:101E500045404440B16030C60B270024FF43083E94
:101E6000A50070593946FEF767FA641C7051032CBF
:101E7000F6DB07B0F0BD0000C805002070B594B0D7
:101E8000402006900320694608770024CC7709207B
:101E900006A9C006FEF757FF01214802FFF752FAD4
:101EA00001210846FFF736FA294808902948099089
:101EB00002200B9080200D9040000E900A9480002C
:101EC0000F90202010900C940002234D119008A92F
:101ED00012942846FEF78AFE1D4E0221403E3046EF
:101EE000FEF770FD01213046FEF762FD6846FEF701
:101EF000A4FD012069460094087104200590029415
:101F000004943046FEF77EFD012107224904304645
:101F1000FEF740FD072240213046FEF73BFD012041
:101F2000FEF794FD3046FEF755FD01213046FEF7E1
:101F300036FD3046FEF77CFD01212846FEF7F2FD16
:101F400006480088FEF70FFA0249486014B070BDD9
:101F5000402401406003002008000240BAF7FF1F40
:101F600010B50B49002803D0012808D0002010BD6F
:101F70000888FEF7F8F90749FEF763F910BD4888AD
:101F8000FEF7F1F9014602484068FEF797F910BDE7
:101F9000600300203333113CF0B58400304887B033
:101FA00005597F2168004008C9050290FEF745F9F0
:101FB00006462946FEF745F9294930390968019155
:101FC000FEF73FF9059029460298FEF73AF92449B1
:101FD000203909680091FEF734F907462048083097
:101FE00001592846FEF725F91D490490283909684A
:101FF000FEF727F93146FEF724F91A4909680391DB
:10200000FEF71FF90599FEF7C3F815490646103982
:102010000851083904980968FEF713F90299FEF788
:1020200010F90399FEF70DF93946FEF7B1F80C499E
:102030000839085101463046FEF7AAF8084E103616
:10204000305130460838055100990198FEF7A0F844
:102050000146A01902F08CF9305907B0F0BD00001C
:10206000080200203C020020F8B505460C46480056
:1020700000D1294C01210026C9078D4203D94C40CB
:102080004D408126F605002C09DC204648402C46B0
:102090000546012189073046FEF77AF806462146B3
:1020A0002846FEF7F5F910D821462846FEF7C1F874
:1020B000074621462846FEF76BF804467F213D4639
:1020C000C9053046FEF764F8064621462846FEF765
:1020D000F5F804461149FEF7B4F81149FEF758F82F
:1020E0002146FEF7AEF80F49FEF752F82146FEF7FB
:1020F000A8F804460C493046FEF7A3F82146FEF73F
:1021000047F80A49884202DD0949FEF792F8094971
:10211000FEF797F8F8BD0000567C0A2A4BC887BD29
:102120007EAE36BE42DA833FDB0F493FDB0F4940CC
:10213000DB0FC940E12E654270B5184C206C0028B9
:1021400004D00025012809D0256470BD0120E0627B
:1021500004F0BCFA206C401C206470BD172004F011
:1021600054FFC00608D58F21002004F073FF2564BA
:10217000E56202F055FD70BD01F002FD216D401ACF
:1021800007498842F7D9E12004F01EFF8F21002083
:1021900004F060FF2564E56270BD0000B40000201B
:1021A0001027000070B5002506462C46A0003058C8
:1021B0000146FEF746F82946FDF7EAFF641CE4B243
:1021C0000546032CF2D3FFF77BF801467F20C005BC
:1021D000FEF774F870BD0000F8B51D4D0C216E6857
:1021E000074632464A431B49184853182A68940048
:1021F0001959002F02D0491C195102E0491E1648F6
:102200001951002E06D1002A01D0012A02D10F490E
:10221000FEF717F80021C943FEF78EF8AE68315972
:10222000FDF7B6FF002800DD30512968002902D1F2
:10223000002800DD706068680C225043054A890060
:1022400080184058002800DA4042F8BDCDCCCC3D83
:1022500020020020D4060020CDCCCCBD30B5002219
:1022600007239C1A6418203C855CE47FA54201D0BA
:10227000002030BD521C072AF3DB012030BD0000D6
:10228000FEB5072004F0C1FE0007400F0026072816
:1022900001D0022000E030460124774D002870D0A4
:1022A000286900281DD001F06BFC07460F217348F8
:1022B00004F095FE00F060FE00285AD0A86C401C87
:1022C000A8646868002801D0FFF736FF6E63AE632C
:1022D00068696F65AF652E632866E86A002846D096
:1022E00047E00F21654804F07AFE644B1868A42883
:1022F00001D0A32845D1A32802D161486C60A8620F
:102300005D48197E44300170197F4170198C8170CD
:10231000998CC1705B49584F8868C968009001204A
:10232000019164378100595C6A4611543A18203A89
:10233000401CD1770628F5DB0621684604F023FE11
:102340003020694608700621684604F01CFE4A48A1
:1023500069694430415C252004F07CFE2C61AC604E
:1023600001F0E4F801F00CFC4749086009E002F0D4
:1023700057FCE869401CE861092802DD0A20AC61CD
:10238000E861E86A002801D0FFF7D6FE01F0F8FB0B
:102390000746686D391AA86A82007D20C0001018AF
:1023A00081420BD92869002808D06F65A86B0028E6
:1023B00001D1286E686102F033FCAC63E96AA86B56
:1023C000084319D1686B0090052815D228690028A8
:1023D00012D0686D7D21381AC90088420CD9A96ACB
:1023E000FDF7A6FE01460098401C814204D302F08E
:1023F00017FC686B401C6863A86D391A234881423A
:1024000006D923482C63066046608660C66002E0F9
:10241000286B002803D0686A002802D011E06C62A3
:102420000FE0286A1B49381A88420AD912482E61DF
:10243000062175306C6204F0A6FD0021052004F031
:1024400009FE01F09DFBE96D411A1048814211D946
:10245000A86CAE64E86401F093FBE865E86CC10F1A
:1024600008184010FDF774FF0B490C4A08609042B1
:1024700000DD0A60FEBD0000B400002074050020ED
:1024800088130000C47000086C00002040420F0058
:1024900044050020C0E1E4004800002000007F4324
:1024A00000B504F06DF900BDF0B57F208BB0C0051C
:1024B0000490FE48807B002802D13F200006049053
:1024C00000252C46FA48AE008059FA4F4200FA49DE
:1024D0005208B8518A4201DCBC510FE00122D207F8
:1024E000904204D87F22D2050023009203E0F34AF1
:1024F0000023F349009202F03BFBB8516D1C032D01
:10250000E0DB03F0B3FAEF480068FDF72CFFE94D7C
:10251000074629680498FDF794FE3946FDF791FEB9
:10252000E94E3146FDF78DFE019069680498FDF78C
:1025300088FE3946FDF785FE3146FDF782FE0290A2
:10254000E2480068FDF70FFF0746A9680498FDF709
:1025500078FE3946FDF775FE3146FDF772FE0390B1
:10256000DB480C3D0278DB49002AD04ADA4FDB4ECB
:10257000DB48D27845D0002A02D00968002912D061
:102580000199016002994160039900278160D34855
:10259000BE008159D2488059FDF74BFE7F1CA851DF
:1025A000032FF4DB44E00021C24804F059FB0399F7
:1025B0007868FDF746FE049001213868C907484055
:1025C0000399FDF73EFE05900399B868FDF739FEC3
:1025D00000270690C348BE008159C3488151384640
:1025E000FFF7DAFC04A98959FDF7D2FDBB498959E7
:1025F000FDF71FFE7F1CA851012FEBDDB748816856
:10260000DAE0002A02D00968002931D0019901607E
:1026100002994160039900278160B048BE0081594A
:10262000AF488059FDF705FE7F1CA851032FF4DB4E
:1026300003F01CFF002003F0BFF8012003F0BCF8FA
:10264000022003F0B9F89948A8490278A84BA94894
:102650000127A94E002A7DD0954AD568A74A954200
:1026600002DD0268002A76D009680129FBD086E1E4
:102670000021904804F0F4FA974F03997868FDF729
:10268000E0FD049001213868C90748400399FDF72F
:10269000D8FD0590B86803990746FDF7D2FD06906E
:1026A0009748099097480890974800907F48974925
:1026B000027AC079002A7DD0002814D003C94700CF
:1026C000490049087F0838460791FDF7E1FE00D927
:1026D000079F08993846FDF7D1FE16D83846089965
:1026E000FDF7ECFD13E00120C007874237D87D4895
:1026F00001687D4801600020FFF74EFC0499FDF75A
:1027000047FD3168FDF795FD4DE07F20C00508903D
:1027100068480099006847007F083846FDF7AEFE1C
:1027200005D838460099FDF7C9FD074601E07F2727
:10273000FF0508990998FDF784FD00907448394613
:10274000FDF77FFD0099FDF723FD0746624881688C
:10275000012001E007E10EE1C007814202D93168A2
:102760000198CFE75F4801685F48016031680198D0
:10277000FDF75FFD3946FDF764FD00907F20394687
:10278000C005FDF756FD07460020FFF705FC04993C
:10279000FDF7FEFC3168FDF74CFD3946FDF751FDB4
:1027A0000099FDF7F5FC286071680298FDF741FD7E
:1027B000686000E005E0B1680698FDF73AFDA860A2
:1027C00036E7002870D07F200027C0050999FDF763
:1027D00030FD0A904D4903C940004D006D08400886
:1027E00006462946FDF754FE00D835462846089986
:1027F000FDF744FE04D828460899FDF75FFD01E087
:102800007F20C00507902B48BD0040590099460025
:1028100076083046FDF732FE05D830460099FDF7C0
:102820004DFD064601E07F26F60507990998FDF75C
:1028300008FD079031460A98FDF703FD0799FDF75B
:10284000A7FC0790244881680120C00781420AD96B
:102850002248415901A84059FDF7EBFC01461548B3
:102860000C3841515DE01F4841591F4841511B48F8
:10287000415901A84059FDF7DCFC0799FDF7E1FC3F
:1028800006467F20C0050799FDF7D3FC0790384620
:10289000FFF782FB04A94959FDF77AFC0F49495912
:1028A000FDF7C7FC079935E047E0000074040020FD
:1028B00044050020F80300200AD7233C000080BF15
:1028C0000AD723BCBC02002035FA8E3CC00200208F
:1028D000A1020020AC010020A0010020BC050020C6
:1028E00040070020F80500200802002078000020A2
:1028F000880000208C00002000000020CDCCCC3DC2
:102900009A99993E00005C423333733F04060020DD
:102910003333333FFDF795FC3146FDF739FCFE4973
:1029200048517F1C012F00DC54E7FC488168069861
:10293000FDF77FFCF84988607AE60027F848BE007A
:102940008159F84881513846FFF726FB04A9895977
:10295000FDF71EFCF1498959FDF76BFC7F1CA8515E
:10296000012FEBDD4AE6F04A1C601268012A00D113
:102970000C60F4611FE0ED490978002902D01F6066
:10298000076002E0EA491C600F60F76119680029DE
:1029900011D0380013D0E7492846FDF752FCE6492C
:1029A000FDF7F6FBB061E548854218DDE4480168B3
:1029B000002913D013E0E249B4610C6004E0E1495E
:1029C0008D4203DADE48B461046008E02846FDF772
:1029D00030FCDD49FDF735FCB061D9480760DB48C4
:1029E0000079002819D0DA49B461DA4B08689842B6
:1029F00011D2D94A90420EDA486898420BD29042DE
:102A000009DA8868984206D2904204DAC868002839
:102A100001DD904201DBC6480760D048D04900780C
:102A20000968084303D1C448B169814223DA706858
:102A3000002807D001F0A4F87168401AC9498842FB
:102A400000D974600025E8B2002103F0C9F86D1CBC
:102A5000032DF8DDC44D00212A46C44801F0AFFC27
:102A6000C2482A460021001D01F0A9FCB46137606C
:102A700034620BB0F0BD0020306001F081F870606E
:102A8000BB480068002802D0BA48C068B061BA48A4
:102A90000024006801283FD1B848BA4D0168B84801
:102AA000814205DAFDF7C5FB2946FDF7CAFB04465E
:102AB000B5480168B548814205DAFDF7BAFB2946F9
:102AC000FDF7BFFB04467F20C005844201DD0446BC
:102AD00001E0002C07DDAE492046FDF7B2FB71692D
:102AE000FDF756FB03E094497069FDF7A2FB3F2117
:102AF00009067061884201DD716105E00121C907A5
:102B0000884201D90020706120467169FDF740FBC1
:102B1000B169FDF792FBB0619E489F4F0068089035
:102B2000002804D10121B868C9074840B860386856
:102B3000009001468D48083880690646FDF779FB0C
:102B400009907D682946FDF774FBBC682146FDF7B6
:102B50001FFB079030460099FDF71AFB06462946F1
:102B6000FDF767FB2146FDF764FB059029460998B0
:102B7000FDF70EFB2146FDF75CFB0690304629462B
:102B8000FDF706FB2146FDF703FB0490089800289B
:102B900003D10120C0074440BC600020401C032832
:102BA000FCDD0020644F044604AE0090A50070597F
:102BB0000099FDF76DFC01D27059009070593946AB
:102BC000FDF75CFC00D27759641C042CEEDB7F21FE
:102BD000C9050098FDF72DFB3F252D06A84200DD15
:102BE0002846624C083CA168FDF752FC04D26B49B0
:102BF000A068FDF7CDFA03E06949A068FDF719FB6D
:102C00004D4FA060A84201DDA56003E06549884200
:102C100000D9A1605548012108388068C907884259
:102C200000D961484549FDF70CFB00280DDD394608
:102C3000FDF7AEFA07460024A50070593946FDF7A6
:102C4000F8FA641C7051042CF6DB3D48006801283A
:102C50001ED100252C46A700F0592946FDF70EFC91
:102C600000D2F559641C042CF5DB5048854201D98B
:102C7000054603E00120C007854209D90024A700CA
:102C8000F0592946FDF7D5FA641CF051042CF6DB07
:102C9000364800210838294F0D467F1E0162AC00DE
:102CA00030590121C907884202D90020305104E07F
:102CB0007F21C905884200DD31513D483159FDF77A
:102CC000C0FA3946FDF764FA2049305109780029E5
:102CD00004D0EAB20146104602F082FF30590121C9
:102CE000C907884202D90020305104E07F21C9057C
:102CF000884200DD315131591C4C083C206AFDF7F7
:102D000047FA6D1C2062032DC9DD0121C943206AE9
:102D1000FDF712FB2062ACE6EC030020BC050020AE
:102D2000F805002008020020CC000020A1020020AD
:102D30004C00002077BE7F3F6F12833ACDCCCC3D54
:102D400084000020CDCC4C3D9932873F7404002094
:102D500044050020A4707DBFA4707D3F9B0200202D
:102D6000E400002040420F00EC51383F08000020F2
:102D7000B4010020100600207C000020300000205C
:102D8000CDCC2C4000004040340000203333534071
:102D900017B7D13880000020340700200AD7A33BA2
:102DA0000AD7233CCDCCCCBD17B7D1B8CDCC4CBEC7
:102DB0006666663FF0B5024604464E4B83B040005F
:102DC0006946984209D273210906884202D200203E
:102DD000C04300E00020009030E05000464B400827
:102DE00098426CD245491046FDF72BFAFDF7ACFB33
:102DF0000746FDF7BFFA8007800F0090404938462C
:102E0000FDF71FFA01903F493846FDF71AFA0646CA
:102E10003D493846FDF715FA05463C493846FDF769
:102E200010FA2146FDF709FA2946FDF702FA314664
:102E3000FDF7FFF90199FDF7FCF9044625467F27C8
:102E4000009CFF05002C3EDBE007314E294608467A
:102E50001BD0FDF7F6F907462E49FDF7F2F92E498A
:102E6000FDF7EBF93946FDF7ECF92C49FDF790F940
:102E70003946FDF7E6F92946FDF7E3F92946FDF75E
:102E800087F9A10718D503B0F0BDFDF7DAF90546BB
:102E90002349FDF7D6F92349FDF77AF92946FDF7CD
:102EA000D0F92149FDF774F92946FDF7CAF93946E9
:102EB000FDF76EF9A107E6D5704003B0F0BD1046EE
:102EC000FEF774FEB9E7FF2168000906884202D2C6
:102ED000384603B0F0BD884206D10120FEF736FF28
:102EE000FEF756FE03B0F0BD2846FEF74CFE03B0D9
:102EF000F0BD0000B61F927E490E494683F9223F7D
:102F00001A61342C0020A23300A0FD390000C93F13
:102F100000000080336D4C39DA82083CA0AA2ABE3A
:102F2000B93AB2BACA9F2A3DDDFFFFBEF3B50746E4
:102F300081B0102001F0E6FD041E1BD0002020719E
:102F400002986071E4600125A46026467F1C0EE0B3
:102F5000102001F0D7FD00280CD0057102994171B5
:102F6000C6608460B0606D1C0646EDB2E060BD4294
:102F7000EED32046FEBD0000F8B5664D2868A528B2
:102F80007DD1002108468200AA58401C51180E2805
:102F9000F9DBC8B2A96B8842F2D15E48103002F06A
:102FA000FBFB5D4E30605B48183002F0F5FB706053
:102FB0005848283002F0F0FBB060288C696A80071E
:102FC000800D4018FDF7C4F95449FDF73AF954490A
:102FD000F0600978534C00291BD053490978002927
:102FE00004D15249884201DD012000E00020207018
:102FF000287A4107C90FE1724106C90F2173C10741
:10300000C90FE1708106C90FC0062172C00FE071BF
:1030100030E04748007800280BD0287B0006C00F1E
:103020002070287A0107C90FC007E170C00FA07196
:103030000AE0287A0107C90F2170297BC007090619
:10304000C90FA171C00FE070287A8106C90F2172E3
:10305000C106C90F8007E171C00FA070287B8106EF
:10306000C90F4007E172C00FA0726868FA2807D044
:10307000002060702F480078012803D003E046E06C
:103080000120F6E7A071E0782B4D002826D0207AA9
:103090002A4F0028E07904D0002804D1394630684E
:1030A00003E000280AD02946306802F0C9FD3060EC
:1030B0002946706802F0C4FD706004E0394630684B
:1030C00002F0BEFD30603946B06802F0B9FDB06074
:1030D0000020064601231A4A1A4D0CE029463068A2
:1030E00002F0AEFD30602946706802F0A9FD706004
:1030F0001549B068E9E716542F5C215C8F4200D077
:1031000013542954401C0E28F5DB0120F8BD002083
:10311000F8BD00007405002044050020F7FF7F3A49
:10312000A1020020740400209B0200200AD7233C47
:10313000A4020020A3020020CDCC4C3FCDCC0C3FFC
:1031400064050020540500209A99193F10B500200D
:10315000FFF742F810BD08B5C100081A0090411EE3
:10316000009101D30846FAE708BD00000646002496
:10317000E0B2002102F034FD641C032CF8DD0B4D9D
:10318000AF0000240CE0FF2001F0E9F82846FFF72B
:10319000E2FFFF2001F0DAF82846FFF7DCFF641CAD
:1031A000B442F0DB3846FFF7D6FFEAE7400D0300F4
:1031B00010B50349FCF7ECFF00F004F810BD000067
:1031C000DB0FC93F70B50446134E144D03E0314682
:1031D000FCF7DEFF0446AC42F9D8114DAC4204DDE9
:1031E0003146FDF726F80446F8E70120C0070D49EF
:1031F0000D4D8442204605D9FDF723F82946FCF7FA
:10320000C7FF04E0FDF71DF82946FDF716F8214633
:10321000FDF717F870BD0000DB0FC940DB0F49C098
:10322000DB0F49407B81CF3E83F9A23F10B5FDF70C
:1032300069FD0124E4062046FDF706FD0E48FDF772
:1032400003FD042817D0FDF72FFD00212046FDF7D0
:1032500033FD0021A01CFDF72FFD0021201DFDF7EF
:103260002BFD0021A01DFDF727FD00210348FDF7E0
:1032700023FDFDF719FD10BD007C000808000008C3
:10328000FEB500273D460024681CFDF761F801905B
:103290000E49A8000E58601CFDF75AF80090A100D6
:1032A00071580198FCF7CDFF0099FCF7CAFF084957
:1032B000FCF7C7FF3946FCF76BFF641C0746032C7D
:1032C000E9DB6D1C032DDEDBFEBD00008802002063
:1032D0008D976E3F10B5FFF7D3FF0149086010BD11
:1032E00090000020F8B50020012400F04FFA744D42
:1032F000A8427DD1FF2000F049FAA84278D12046AB
:10330000022500F04BFA6F4948600968FDF7B6F8EE
:1033100011D100260024B70028466D1C00F03EFAAB
:103320006949A200C959641C8850032CF4DB761C3F
:10333000032EEFDB00E00B2528466D1C00F02EFA73
:10334000624C206028466D1C00F028FA6060284618
:103350006D1C00F023FAA06028466D1C00F01EFAD8
:10336000FDF721F85A49086028466D1C00F016FA4E
:10337000FDF719F85749086028466D1C00F006FA59
:1033800055490870284600F001FAC0B2534900249C
:103390000870272800D90C70252000F0F7F9C0B27A
:1033A0004F490128087000D90C70262000F0EEF972
:1033B000C0B24C490128087000D90C70272000F0D9
:1033C000E5F9C0B248490128087000D90C702820DE
:1033D00000F0DCF945490870292000F0D7F944498C
:1033E00008702A2000F0D2F9424908702B2000E032
:1033F00065E000F0CBF9404908702C2000F0C6F9D8
:103400003E4908702E2000F0C1F93D4908702F2078
:1034100000F0BCF93B490870302000F0B7F93A4998
:103420000870312000F0B2F938490870342000F0FB
:10343000ADF9002203461146CC0018462041C0B227
:103440007F2800D90122491C0429F5DB002A28D154
:103450002F49012008602F490860322000F096F9BA
:103460002D4C2071322000F091F92C49000A08609F
:10347000332000F08BF902460021CB0010461841A2
:103480006054491C0429F8DB342000F07FF9244AF9
:1034900003460021CC00184620415054491C042901
:1034A000F8DB362000F07AF9FCF764FF1D4908606C
:1034B000372000F073F9FCF75DFF1B490860F8BD89
:1034C0000100AA129000002088020020B005002010
:1034D000BC020020C00200209602002097020020BB
:1034E000A3020020A4020020A1020020A2020020CA
:1034F000A60200209D0200209E0200209F020020C4
:10350000A0020020A50200209402002095020020C5
:10351000BC000020C000002018010020B8000020DE
:10352000F80000207C00002080000020F8B500F0AA
:1035300039F900F019F900200124624903F034FD43
:10354000614920460225096800F030F90026002470
:10355000B7005E48A100C059415828466D1C00F0D4
:1035600025F9641C032CF4DB761C032EEFDB584C8E
:1035700028466D1C216800F019F928466D1C616809
:1035800000F014F928466D1CA16800F00FF95148AD
:103590000068FCF7E8FE014628466D1C00F006F9BD
:1035A0004D480068FCF7DFFE014628466D1C00F020
:1035B000FDF84A4928466D1C097803F0F5FC484897
:1035C0000178284603F0F0FC46480178252003F0F6
:1035D000EBFC45480178262003F0E6FC43480178DF
:1035E000272003F0E1FC42480178282003F0DCFCAE
:1035F00040480178292003F0D7FC3F4801782A2071
:1036000003F0D2FC3D4801782B2003F0CDFC3C4870
:1036100001782C2003F0C8FC3A4801782E2003F0F2
:10362000C3FC394801782F2003F0BEFC37480178ED
:10363000302003F0B9FC36480178312003F0B4FCA7
:103640003448006800281FD03448334C0068217982
:1036500000020143322003F0A7FC2046FCF77EFD68
:103660000102E078090A00060143332003F09CFCC4
:103670002B48FCF773FD01022948090AC0780006AF
:103680000143342003F090FC26487F240068E405C1
:10369000002801D0214600E00021362000F086F805
:1036A00021480068002801D0214600E00021372091
:1036B00000F07CF80349FF2003F076FC00F062F88C
:1036C000F8BD00000100AA1290000020880200202E
:1036D000B0050020BC020020C0020020960200209D
:1036E00097020020A3020020A4020020A1020020D3
:1036F000A2020020A60200209D0200209E020020BF
:103700009F020020A0020020A502002094020020B9
:1037100095020020BC00002018010020B800002005
:10372000F80000207C00002080000020F8B515463D
:103730001C4606460F46FDF79DF8000F02280BD0E9
:10374000002D01D0012000E0002020434000054969
:103750004008081AC00F02D030463946F8BD284646
:103760002146F8BD0000F07F10B50548FDF76CFA62
:10377000042803D0FDF798FA012010BD002010BDE9
:10378000007C000810B5FDF78FFA10BD02498000DB
:103790004018006870470000007C000800B5FFF783
:1037A000F5FF00BD10B5FDF7ADFA10BD10B503F083
:1037B000FBFB10BDF8B515461C4606460F46FDF747
:1037C00059F8000F08280BD0002D01D0012000E08F
:1037D00000202043400005494008081AC00F02D0CD
:1037E00030463946F8BD28462146F8BD0000F07F36
:1037F00030B53F4C2178814277D006216218203ABB
:10380000D27F6254491E0129F8DA207039493848BC
:10381000FEF724FD7F25002802D06570032030BD0F
:1038200034493348C91DFEF719FD002802D06570E0
:10383000042030BD2F492E480E31FEF70FFD002821
:1038400002D06570012030BD2A4929481531FEF7A4
:1038500005FD002802D06570022030BD25492448AE
:10386000C91FFEF7FBFC002802D06570092030BD9F
:1038700020491F480E39FEF7F1FC002802D0657080
:103880000A2030BD1B491A481539FEF7E7FC00280D
:1038900002D065700B2030BD164915481C31FEF76B
:1038A000DDFC002802D06570052030BD11491048AC
:1038B0002331FEF7D3FC002802D06570062030BD0E
:1038C0000C490B482A31FEF7C9FC002802D065706C
:1038D000072030BD074906483131FEF7BFFC0028FC
:1038E00003D06570082030BDFFE70020FBE7000033
:1038F000AC0000208B700008F8B500F08FF80400D1
:1039000072D001253C4E012C1ED13068002834D0E5
:103910003A48056000203060FFF708FEFFF7E2FC40
:10392000002002460C2703467B43354F0021DB195C
:103930008F00491CDA510329FADB401C0328F1DB14
:1039400000F01EF92F49086002212F4F0B2C19D0CF
:10395000022C1ED00A2C28D02C48042C2DD0032C4D
:103960002FD0072C00DB3560052C2FD0062C30D053
:10397000072C3AD0082C3BD02EE000F03DF9FEF7A2
:103980000FFAC9E7224A11E01060081A3860356062
:10399000E9E7204A1068002805D000201060081AC6
:1039A000386035601BE00120F8E71B4A10680028EA
:1039B00001D00020E8E70120E6E705710F48056027
:1039C0000AE00E490D600021017105E001F00CF9DB
:1039D00001E001F0FBF838603068002804D0386856
:1039E000002801D105480560F8BD00F049FCF2E768
:1039F000FFF7ACFBEFE70000980000204C00002030
:103A0000D40600206C000020500000207404002028
:103A100080000020BC0000207C00002070B53748EA
:103A2000374C0068002864D0364B37481A6851007C
:103A3000490881420BDA9D686D006D08854206DAFF
:103A40005D686D006D08854201DA00202FE02F4D82
:103A5000AA4202D89E68AE4206D95E687600760811
:103A6000864201DA012022E0294EB24202DC9A6845
:103A7000B24206DD5A6852005208824201DA022040
:103A800015E05A68AA4208D9814206DA9D686D009D
:103A90006D08854201DA032009E0B24208DD814267
:103AA00006DA996849004908814201DA0420206059
:103AB00000F066F806CC083C914200D0E060E26875
:103AC000801A144A90420FD9002904D1124A904218
:103AD00001D90C2005E0114A904204D97F2903D076
:103AE000FF20A06000E0A1606160A068FFF780FE99
:103AF00070BD7F20A0606060002070BD00000020CD
:103B00009C00002044050020CDCC4C3E333333BF15
:103B10003333333FA086010060AE0A0020A10700C6
:103B200070B5134C134A606800231349904206D9BC
:103B30004D7D012D03D18D6EAD688D664B750F4D9A
:103B4000A84206DD8E7D012E03D18E6EF6688E664C
:103B50008B750123A84203DA904201D28B754B7515
:103B60002068A84203DA904201D2CB750B7670BD73
:103B7000440500209A9919BF940200209A99193F90
:103B800000B503F0DDF900BD1CB523200121400480
:103B9000FDF7C0FB01206946087100208871C871DB
:103BA00003204871022000900920C006FDF7CBF8E1
:103BB0001CBDF0B5012185B04804FDF7ABFB012029
:103BC000C00200900024684604710125C5710326D7
:103BD00009274671FF0669463846FDF7B4F8280301
:103BE000029068460473C573467302A93846FDF710
:103BF000AAF805B0F0BD0000F0B591B0FFF7C0FF26
:103C00000F9005460B900A9000208100574B0CAA9C
:103C10005B58401C53500328F7DB8DE00A980A9547
:103C2000281A099001D10120099006236A464321F0
:103C3000682000F097F9009801990002401800B23E
:103C4000FCF786FB0790029803990002401800B227
:103C5000FCF77EFB0690049805990002401800B21C
:103C6000FCF776FB424E0890307800F01BFB2046B4
:103C70004049FCF75DFA4048814201D9012100E04A
:103C800000213068C207D20F914201D0401C306041
:103C9000374801780907090F00260160B4000CAF0E
:103CA00006A839590059FCF7F3FB04D238593349B7
:103CB000FCF76EFA385106A839590059FCF7DEFBBB
:103CC00004D238592D49FCF7B4FA3851E0192C497F
:103CD00000F04EFB38592B4940004008FCF758FAD9
:103CE000014606AF385940004008FCF7D1FB06D228
:103CF000FFF746FF0B901E48012101600BE0099879
:103D0000FCF731FB204900F097FB02461748395970
:103D1000201800F054FB761C032EBFDB7D24E4004A
:103D2000FFF72EFF401BA04203D20A20FFF713FA31
:103D3000F6E7FFF725FF05460B982C1A1348844237
:103D400005D20F981249281A884200D266E70B98CC
:103D5000291A0E48814207D20020044A01468300F6
:103D6000401CD1500328FADB11B0F0BDD40500206F
:103D70008801002024F40000127A0000CDCCCC3D54
:103D8000000048440000C8420024F44880841E001B
:103D9000C0E1E40010B58AB0022069460871012034
:103DA0008871C8710320164C00902046FCF7CBFFA9
:103DB000012200212046FCF7FEFF01221146204689
:103DC000FCF7F9FF01214805FDF7B0FA1020FDF7D7
:103DD00061FB0C48029000200F2104910390AB215D
:103DE000094C059007900691089002A92046FDF71E
:103DF0001BF801212046FCF7FCFF0AB010BD0000B3
:103E0000001400481808700000540040F8B5174628
:103E10001E460446012200F03BF809208002009073
:103E20006004010C0123F2B25B061248FDF734F87E
:103E3000114D0020287018E0002408E0641C600B7D
:103E400005D00E490868401C08600020F8BD042118
:103E50000848FCF7E2FF0028F0D00648FDF716F806
:103E600029788A00B850491C29702878B042E3DBD1
:103E70000120F8BD005400408403002068030020A6
:103E800008B501236A46FFF7C1FF009808BD00008E
:103E9000F7B582B0174600241C4D1D4E02E0641C8D
:103EA000600B24D10121C9033046FCF7B6FF01287D
:103EB000F5D00120400300900298FAB24004010CB2
:103EC00000233046FCF7E8FF02E0641C600B0ED1D3
:103ED00002213046FCF7A1FF0028F6D00398C1B2BA
:103EE0003046FCF7D6FF08E0641C600B05D028685C
:103EF000401C2860002005B0F0BD01213046FCF7D1
:103F00008CFF0028F0D00120F5E7000068030020B6
:103F10000054004070B5154600240222FFF7B8FF98
:103F2000E9B20C4D2846FCF7B4FF07E0641C600BB7
:103F300004D009490868401C086070BD402128462B
:103F4000FCF76BFF0028F1D001212846FCF75BFF4E
:103F500070BD0000005400406803002010B5FFF75A
:103F600019FF10BD10B5FFF751FF10BD10B5FFF7D9
:103F700087FF10BD10B5FFF7CDFF10BDF0B5A24C07
:103F8000A24D91B021682868FCF753F9A04E07466E
:103F9000306061686868FCF74CF97060A168A868D7
:103FA000FCF747F9B0603846FCF79AFF306070685C
:103FB000FCF7D6FF7060B068FDF712F8B060954965
:103FC000684602F0D7FF9448002400680AAF0390C7
:103FD0009248A50040590399FCF733F9641C7851C5
:103FE000032CF5DB0B98FEF7E5FE03900B9802F02F
:103FF00001FC07900A98FEF7DDFE0D9001250A9856
:10400000ED07684002F0F6FB04460C98FEF7D2FE7E
:1040100006900C98684002F0EDFB04900399069816
:10402000FCF70FF908900D990698FCF70AF9074676
:1040300003990498FCF705F9059006990798FCF791
:1040400000F90E9004990798FCF7FBF809900D9879
:1040500004996840FCF7F5F80F9021460E98FCF79C
:10406000F0F80599FCF794F8109021460998FCF7B0
:10407000E8F80899FCF7E1F8069007980D99684070
:10408000FCF7DFF8079021460898FCF7DAF8099961
:10409000FCF7D3F8054621460598FCF7D2F80E99AF
:1040A000FCF776F8049003990D98FCF7CAF82946B6
:1040B000584D0890A8680590FCF7C3F80990686807
:1040C00010990390FCF7BDF839460D902F683846DB
:1040D000FCF7B7F80D99FCF75BF80999FCF758F86D
:1040E000009004990598FCF7ACF8049006990398A1
:1040F000FCF7A7F8069038460F99FCF7A2F8069946
:10410000FCF746F80499FCF743F8019008990598E4
:10411000FCF797F8049007990398FCF792F803903E
:1041200021463846FCF78DF80399FCF731F80499DD
:10413000FCF72EF802906946284602F01BFF34482F
:10414000FEF730F836497F220968D205002926D0CB
:104150003449354B4118994242D201460024104659
:10416000FCF7ACF80390A700F159FCF76AF8641C5F
:10417000F051032C01DA0398F5E727483F2109069F
:10418000006800F06BF907460024A0003158401980
:104190003A4600F014F9641C032CF6DB20E00146DB
:1041A00000241046FCF78AF80390A700F159FCF7A9
:1041B00048F8641CF051032C01DA0398F5E716481F
:1041C0003F210906006800F049F907460024A000D5
:1041D000315840193A4600F0F2F8641C032CF6DB23
:1041E0001248017A002902D1C07900280AD0A968B2
:1041F0002868FDF739FF0E4C2060A9686868FDF754
:1042000033FF606011B0F0BDB0050020C80500208C
:10421000EC050020A001002068000020BC05002063
:1042200000000020CCCCCCC03233730074040020DA
:1042300004060020F8B500260D4FFDF7E3FD00242D
:10424000A5000C4879594059FBF7F3FF01460A488D
:104250000A4A281800F0B3F8641C032CF0DB7D2018
:10426000C000FEF778FF761C642EE6DBF8BD000088
:10427000B0050020C8050020A00100209A99593FF0
:1042800010B50120FDF7A8FF10BD0EB500226B464A
:104290001A805A8001911A819A726946FDF764FA70
:1042A0000EBD000070B50646FFF76AFC194C216987
:1042B0002061451A3046FCF756F81749FBF7C1FF55
:1042C00006460121204689070C3000F051F82846A7
:1042D000FCF749F8054630466168FBF7AAFF294616
:1042E000FBF7AFFF0D49FBF7ACFFE168FBF750FFB1
:1042F0000B49E060884205DDFF2000F030F87F20A8
:10430000C00503E0FF2000F021F8002060600020DD
:1043100070BD0000380100208988883D6F12833A03
:1043200048E1FA3E70B50D460446FFF729FC2146E8
:10433000FBF7FEFE6C432009814203D90F2000F0F9
:104340000EF870BD0F2000F001F870BD10B5C00769
:1043500004D009200221C006FCF744FD10BD10B5B1
:10436000C00704D009200221C006FCF73DFD10BDA6
:1043700070B504460120C0070D4645400E46206832
:10438000FCF786F800D2266028462168FCF780F802
:1043900000D2256070BD1CB501214804FCF7BAFFAE
:1043A000022000900020694609240871E406204696
:1043B000FCF7C9FC02212046FCF716FD1CBD70B5B8
:1043C00005460C467F2016461146C005FBF731FF17
:1043D0002146FBF736FF044631462868FBF731FFDC
:1043E0002146FBF7D5FE286070BD0000F3B5104EE6
:1043F000104F8C0083B031597869FBF722FF019090
:1044000030460C38055938692946FBF71AFF0090E9
:10441000B9690398FBF715FF0099FBF7B9FE0199FD
:10442000FBF707FF314635510C39085105B0F0BD97
:10443000700700202002002010B5FBF73FFF7F240B
:10444000E4052146FBF7F9FEA04201DD204610BD40
:104450000121C9078842FAD9002010BD10B5FBF729
:10446000F0FE7F24E4052146FBF7E7FEA04201DDD4
:10447000204610BD0121C9078842FAD9002010BD8D
:10448000F8B5164A09018C1805462768A1686068C6
:10449000FBF77EFE0090E168FBF77AFE01467F2085
:1044A000C005FBF70BFF0099FBF7CBFE064639462C
:1044B0002846FBF7BEFE3146FBF7C3FE3946FBF745
:1044C00067FE05467F203146C005FBF7B2FE009926
:1044D000FBF7B7FE256060602846F8BD2006002087
:1044E000F8B5164A09018C1805462768A168606866
:1044F000FBF74EFE0090E168FBF74AFE01467F2085
:10450000C005FBF7DBFE0099FBF79BFE064639462C
:104510002846FBF78EFE3146FBF793FE3946FBF744
:1045200037FE05467F203146C005FBF782FE009925
:10453000FBF787FE256060602846F8BD5006002026
:104540001CB57D24E4002046FEF705FEF94A91697A
:10455000012739439161F848016810221143016035
:104560002046FEF7F8FDFFF724FBF448FEF7F3FDC5
:104570000925ED06F9022846FCF72DFC002805D098
:1045800039032846FCF727FC00280BD1FEF74EFE26
:104590007D20C000FEF7DFFDE9484168006880F338
:1045A00008888847FDF77CFF02F0F8FB02212846C7
:1045B000FCF711FC0025002803D1E2480560FEF756
:1045C000B5FFFFF7E1FAFF20FFF7C9FE02F0BCFAE2
:1045D00002F0A0FC00F034FB4B208001FDF71AF93B
:1045E000D648FEF7B8FDFFF7B9FC01F07DFA0021CF
:1045F000084601F0F5FA0021012001F0F1FA00214E
:10460000032001F0EDFA0021022001F0E9FA02F0A6
:10461000C5F902F0B1F9002858D0FDF72FFCCA48BF
:104620008773FEF757FEFEF75DFE01F0BFFFC84837
:10463000C64900260164C44CAA200C3C20705520B9
:1046400060700720A0700120E070C248052100784A
:1046500020712046FCF708FA6071A571E57125729A
:104660006572A572E572FDF7C3F8BB48761C8642F9
:10467000E1DBB74E00240020FDF772FC7169FBF707
:10468000E0FD07460120FDF76BFC0146B048B34A48
:104690001430FFF794FEAE48B04A39460C30FFF7AD
:1046A0008EFEAD48641C8442E5DBAD4FF068062405
:1046B00001902046FBF74CFE014600900198FBF765
:1046C000FDFDB84204DD0098306204E0042039E0CA
:1046D000641E002CEDDC316A0198FBF7EFFDA14967
:1046E000884201DA02202DE0FCF7E6FBFFF784FAAE
:1046F00001F06EFBFFF79EFD9B480068002801D08B
:1047000007201FE0FFF73CFAB064FFF739FA904C3E
:104710000646A06C301AFBF726FE6064002802DC17
:104720007F20C00560649149FBF78BFD9049606470
:10473000884201DD062005E08B48A6640068142845
:1047400002DD0820FEF712FD02F066F9FDF7ACFE6F
:10475000FFF714FC0020FDF703FC7D4C6169FBF7BB
:1047600070FD07460120FDF7FBFB014620467B4A12
:104770001430FFF724FE7F48784A0168204618303D
:10478000FFF71DFE7C49206AFBF75BFD00907B4A2A
:104790006846E168FFF713FE2046704A39460C3040
:1047A000FFF70DFE0121C9430098FBF7C5FD074641
:1047B0007349E068FBF745FD3946FBF73AFDE064D5
:1047C0000746A4696F4884425DDD6148406B0190F3
:1047D000FBF7BEFD6B49FBF734FD2146FBF731FDCE
:1047E0003946FBF7D5FC019907468C0056497031D4
:1047F00008515748C06B002808D00020544B30396E
:104800008200401C8F500C28FADBDD634E485E4965
:1048100010300059FBF715FD01904B48403001590D
:104820003846FBF706FD0199FBF7B2FC46494031DB
:104830000F51303908510146FBF703FD424F014645
:10484000A037E019514AFFF7BAFD41484049406B93
:10485000401C48630C2816DB084645633968002471
:1048600001913948A700A030C0590199FBF706FE15
:1048700006D23548A030C05901903548611C81638B
:10488000641C0C2CEDDB324CE069002802D03D4862
:10489000206500E025653E49206DFBF779FC074661
:1048A000A06BFBF755FD3749FBF7CBFCA169FBF784
:1048B000C8FCE16CFBF76CFC3946FBF7DFFD03D36A
:1048C0003449E068884202DA0120E06100E0E561F5
:1048D000A06BFBF73DFD2B49FBF7B3FCA169FBF790
:1048E000B0FCE16CFBF754FC20612B480068002809
:1048F00005D02A480078002801D1FEF7FDFF1448B2
:10490000C069002801D0082108E025480068002877
:1049100006D024480068002804D00F21224863E014
:104920000C2160E00A4C2149606A401E88423FD851
:104930000F2158E00010024000000140A086010055
:1049400000C4FF1FBC000020740400208122000866
:10495000240000209702002088130000492E7F3F8A
:10496000CDCC6C403333534068030020BD378635CF
:104970000AD7A33C200000206666864029EA7F3FD4
:104980000000A03FCDCCCC3D42F27C3F67B17F3FE1
:10499000CDCC4C40CDCC2C40000000209B02002010
:1049A000C4000020E400002020A10700FFFF1F42F8
:1049B0004B488079002807D00027A06A002816D02D
:1049C000206B002802D004E00127F6E7FFF7D8F8B3
:1049D0002063FFF7D5F8216B411A4248814201D983
:1049E000A562256308214048FFF79CFC2DE03F4865
:1049F000C06A002820D0FFF7C3F804463B48006B8C
:104A000000280AD13948002F046303D0FF20FFF7A4
:104A10009DFC02E0FF20FFF7A2FC3448016B621A04
:104A200030498A4203D9C16A0563491EC162006BDD
:104A30002F49201A884208D9002F03D0FF20FFF702
:104A40008EFC02E0FF20FFF781FC01F0AFFA01F0DD
:104A50005DF9264C206C804760682649401C6060E8
:104A6000E068FBF7EEFBFBF785FCA06000F01AF9AD
:104A700021480078002803D02048007800280AD078
:104A80001748007A20707D24E400FFF779F8801B36
:104A9000A042FAD339E612482178007A8842F2D04F
:104AA000174920700878401CC0B208700F2801D93F
:104AB000082008700A4CAA200C3C20705520607019
:104AC0000720A0700120E0700878207105212046A1
:104AD000FBF7CAFF6071A571FCF78AFED3E70000FF
:104AE0007404002020A10700A086010024000020FB
:104AF000E09304000000C842A10200209B020020B5
:104B000097020020F0B50B30C108C900144F0026F1
:104B1000144A0FE003688B420BD38B4205D95C1A11
:104B20004318456830C3083B00E04368136002C087
:104B300004E0021D10680028ECD13046002803D1A3
:104B40003868002801D00020F0BD064A06481060F1
:104B5000064A121AD208D20044C001203860D7E7B2
:104B6000A4030020A003002004080020000C002063
:104B7000FFB581B007460E4610460A9DFBF759FB6C
:104B8000044628460499FBF754FB0546314638464F
:104B9000FBF74FFB2946FBF754FB2146FBF78EFB47
:104BA0000499FBF7F5FA05B0F0BD000010B5064911
:104BB0000868002807D000200860091D0871092036
:104BC000C006FCF7C0F810BD6C030020054908685A
:104BD000022804D001DA02200860401C704700203F
:104BE000FAE70000200200200C494868002804D0A1
:104BF000012807D002280AD10BE008484430886019
:104C0000012003E005485030886002204860401CC5
:104C100070470248383088600020F7E72002002003
:104C200010B50649087D401C8007800F486144315B
:104C3000095C252002F00EFA10BD0000B40000202F
:104C400010B500210720FEF771F9154C01212063F2
:104C500060630920FEF76AF9A063E0630221042083
:104C6000FEF764F92064606403210020FEF75EF91A
:104C7000A064E06404210320FEF758F920650521B3
:104C800060650846FEF752F9A065E065062103203D
:104C9000FEF74CF920666066206BA06610BD000030
:104CA00094020020FEB5FE4DFE49286A012600242C
:104CB000884204DA401C28620620E87104E0287A61
:104CC000002801D12E72EC71E879F74F0300FCF750
:104CD00022FF0805FDFCFBFAF9F8F798F34AF048C3
:104CE0009168437B8C465168D0681268002B77D05E
:104CF000EF4DAC4537D9EF4B984234DAB94232DD4B
:104D0000ED4882422FD29A422DDAE54AEB4DD67118
:104D1000002081006B58916B401C0B608968C0B209
:104D200091630328F5D3E64D002081006B58916B09
:104D3000401C0B608968C0B291630328F5D3E14D34
:104D4000002081006B58916B401C0B608968C0B2D9
:104D500091630328F5D3D06B9063506C1064D078C6
:104D6000507190781071D84F3868C82849D3CC4E0C
:104D70000F20F179D54D09010843D54A28701078E4
:104D80006870D448AC700088010AE9702871B07C62
:104D90006871D078A871D048006800900190FBF746
:104DA00002FBE8712C726C72019800281BDD3078D0
:104DB000FBF7D9FA0099FBF76BFB14D2FEF7E0FE84
:104DC000F169411AC548814207D9707E002808D090
:104DD00000207076FEF7D4FEF061707EA87203E0CA
:104DE00010E00120F5E7AC72EC7200202A5CE97A51
:104DF000401C8918C0B2E9720B28F7D3FCF7F8FC05
:104E00003C60FEBDB24B1B78002B49D1A84DAC4590
:104E100046D9A84B984243DDB14DA84240DAB94289
:104E20003EDDA54882423BD29A4239DA9C4AA34DE4
:104E3000D671002081006B58916B401C0B60896813
:104E4000C0B291630328F5D39D4D002081006B58BB
:104E5000916B401C0B608968C0B291630328F5D345
:104E6000984B002081005D58916B401C0D60896853
:104E7000C0B291630328F5D3894B002024331D5C15
:104E8000116C401C0D708968C0B211640428F6D3FF
:104E9000D06B9063506C1064D07850719078107122
:104EA00089480068C828ACD37D4E0F20F179874D22
:104EB000090108432870864801786970AC7006E0E3
:104EC000EFE34EE392E232E2D2E1B9E043E081491E
:104ED00009880A0AEA702971B17C6971017AC2797C
:104EE00049009200C078114301437B48A9710068D2
:104EF0000746FBF758FAE8712C726C72002F1ADD26
:104F00003078FBF730FA3946FBF7C2FA13D2FEF7D6
:104F100037FEF169411A7148814207D9707E002835
:104F200007D000207076FEF72BFEF061707EA8722D
:104F300002E00120F6E7AC72EC7200202A5CE97A0C
:104F4000401C8918C0B2E9720B28F7D3FCF750FC5B
:104F50005D480460FEBDFEF7E3FD54480068B842BA
:104F600048DDE87D012845D1A86E00790300FCF7F3
:104F7000D2FD0805090E12161A1E3B40E86BA86602
:104F8000022002E0686CA8660320E87131E0E86C5A
:104F9000A8660420F9E7686DA8660520F5E7E86DC6
:104FA000A8660620F1E7686EA8660720EDE7EC71B9
:104FB000686BA8666C75AC75FEF7B8FAFEF792F9E7
:104FC000484E00210C230A4600205A4392198300C0
:104FD000401CD4500328FADB491C0329F2DBFEF7FE
:104FE000CFFD4149086004E0EC71686BA8666C7500
:104FF000AC75EC75344E3068C828ABD3EA790F2015
:105000003249120110430870A86E00794870E87C9C
:105010008870287DC8700C714C718C71CC710C72C9
:105020004C728C72CC7200200B5CCA7A401CD21875
:10503000C0B2CA720B28F7D3FCF7DAFB3460FEBDAE
:10504000FEF76EFD19480068B8425CDDE87D012876
:1050500059D1AF6E387909284FD224493868FBF707
:1050600097F83860E86BA863144A0020A96B8600A3
:105070000B6893518968401CA9630328F6DB104A2A
:10508000002086000B6893518968401CA96303289F
:10509000F7DB0C4A002086000B689351896827E0F3
:1050A000940200204A0600009A99193F4405002006
:1050B0009A9919BF9A99993E9A9999BE58020020D7
:1050C00064020020700200202800002068040020F4
:1050D000740400202C0000204800002020A10700BC
:1050E0003333333FD40600206C0000200AD7233C22
:1050F000401CA9630328CEDB04E0EE71E86BA863D3
:10510000686BA866EC75FB480168FB48814230D9A2
:10511000287E01282DD1AE6E3079092828D2F74992
:105120003068FBF786F83060002800DC3460E86BFC
:10513000A863F34A0020A96B86000B689351896825
:10514000401CA9630328F6DBEE4A002086000B68AA
:1051500093518968401CA9630328F7DBEA4A0020C1
:1051600086000B6893518968401CA9630328F7DB0C
:105170002C76E64F3868C82800D260E7E9790F201E
:105180000901E34E08433070A86EDD4D0079707060
:10519000E0492868FBF755F8FBF75CF901F0B8F92E
:1051A000FBF73AF9B070DB496868FBF74AF8FBF7A0
:1051B00051F901F0ADF9FBF72FF9F070D549A86866
:1051C000FBF73FF8FBF746F901F0A2F9FBF724F9EA
:1051D000CC4D3071CF492868FBF733F8FBF73AF92B
:1051E00001F096F9FBF718F97071CA496868FBF786
:1051F00028F8FBF72FF901F08BF9FBF70DF9B071E7
:10520000C449A868FBF71DF8FBF724F901F080F901
:10521000FBF702F9BC4DF071BE492868FBF711F8A5
:10522000FBF718F901F074F9FBF7F6F83072B94999
:105230006868FBF706F8FBF70DF901F069F9FBF771
:10524000EBF87072B349A868FAF7FBFFFBF702F9B5
:1052500001F05EF9FBF7E0F8B072F4720020325C06
:10526000F17A401C8918C0B2F1720B28F7D3C5E55A
:10527000FEF756FC9F480068B84212DDE87D012821
:105280000FD1A86E0079002831D0012837D002282C
:105290003DD0032843D0EE71686C2864686BA86623
:1052A000EC759A4E3068C82800D2C8E6EA790F201B
:1052B0009749120110430870A86E00794870687B06
:1052C0008870A87BC870E87B0871287C48718C7155
:1052D000CC710C724C728C72CC7200200B5CCA7A4E
:1052E000401CD218C0B2CA720B28F7D3A4E6687B60
:1052F000002802D000206873D2E70120FBE7A87BDA
:10530000401CC0B2A8730128CAD9AC73C8E7E87BB7
:10531000002802D00020E873C2E70120FBE7287CC8
:10532000002802D000202874BAE70120FBE7FEF72E
:10533000F7FB70490868B8420ADDEA7D012A07D107
:10534000754AD278002A02D0EE716A6BAA66EC75B3
:105350006E4F3A68C82AA8D3EB790F226C4E1B0116
:105360001A433270AA6E0D46127972706949FAF7C3
:1053700068FFFBF76FF801F0CBF8FBF74DF8B07062
:1053800064496868FAF75DFFFBF764F801F0C0F85C
:10539000FBF742F8F0705F49A868FAF752FFFBF795
:1053A00059F801F0B5F8FBF737F830715949E8685A
:1053B000FAF747FFFBF74EF801F0AAF8FBF72CF8D5
:1053C000707155480178B171C178F171017A31720B
:1053D000C0797072B472F4720020325CF17A401CB1
:1053E0008918C0B2F1720B28F7D307E5FEF798FBD6
:1053F00040480068B84261DDE87D01285ED1A86EB2
:105400000079002806D001280DD0022815D00328E5
:1054100053D14FE06879401CC0B26871272800D989
:105420006C71AE7149E02879401CC0B22871012826
:1054300000D92C710220A8713FE0A879022816D16A
:105440002979A970324FAC71AA2038705520787034
:105450000520B870FE70397101463846FBF704FB31
:105460007871BC71FC713C727C72BC72FC72A87960
:10547000012816D16879E870254FAC71AA213970DE
:10548000552179700721B970FE70387105213846B1
:10549000FBF7EAFA7871BC71FC713C727C72BC72E9
:1054A000FC72FEF743F8FEF76BFB1C490860FCF743
:1054B0009FF902E0EE71686BA866EC750D48016813
:1054C0000D48814210D9287E01280DD1A86E00799F
:1054D000002808D16879002801D128206871C0B25D
:1054E000401E6871AE712C76084E3068C82817D2FD
:1054F000A5E50000440500209A9919BF0AD7233C6E
:1055000058020020640200207002002028000020C1
:10551000680400200000C842740400206C000020D1
:10552000EA790F209849120110430870A86E00799B
:105530004870E8788870A878C8700C7168794871EC
:1055400028798871CC710C724C728C72CC720020EC
:105550000B5CCA7A401CD218C0B2CA720B28F7D3AF
:105560006AE5FEF7DDFA89480068B8423ADDE97D70
:10557000012937D1A96E09790B00FCF7CCFA060492
:105580000C141C252D32697A491CC9B26972202974
:1055900027D96C7225E0A97A491CC9B2A9722029C1
:1055A0001FD9AC721DE0E97A491CC9B2E972202901
:1055B00017D9EC7215E0697C491CC9B269742829B5
:1055C0000FD91C2169740CE02978491DC9B22970D2
:1055D0005A2906D92C7004E0EE71E96DA965696B52
:1055E000A966EC756A49884233D9287E012830D1F2
:1055F000A86E202100790300FCF78DFA05040C1435
:105600001C252A00687A002802D0401E68721FE01C
:1056100069721DE0A87A002802D0401EA87217E027
:10562000A97215E0E87A002802D0401EE8720FE067
:10563000E9720DE0687C401EC0B268741C2807D275
:105640002820687404E0287800282BD0401F287098
:105650002C76504E3068C82800D2F0E4EA790F204A
:105660004949120110430870A86E00794870687AA1
:105670008870A87AC870E87A08714C71287B8871A4
:10568000687CC871287808724C728C72CC720020C9
:105690000B5CCA7A401CD218C0B2CA720B28F7D36E
:1056A000CAE401E05A20D2E7FEF73AFA3748016827
:1056B000B94223DDE87D012820D1A86E00790028B9
:1056C00006D0012808D002280AD0032815D10FE0FF
:1056D000A86A0A30A86210E0E86A0A30E8620CE0C2
:1056E0006878002802D00020687006E00120FBE7FF
:1056F000EE71686E2866686BA866EC752448814276
:1057000019D9287E012816D1A86E0079002804D066
:10571000012806D002280DD107E0A86A0A38A8623D
:1057200008E0E86A0A38E86204E06878002828D0CF
:10573000002068702C76174E3068C8288DD3EA791F
:105740000F201149120110430870A86E00794870AB
:10575000288D020A8A70C870A88D020A0A714871E1
:1057600068788871CC710C724C728C72CC7200208B
:105770000B5CCA7A401CD218C0B2CA720B28F7D38D
:105780005AE40120D5E70000680400204405002009
:105790009A9919BF2800002010B541680078800749
:1057A000800DFF38FF3802380818FAF7D1FD0821BC
:1057B000C943FAF7C1FD10BDF0B506469D4A9F48A2
:1057C000D3789D4900689E4FB4008FB0002B02D063
:1057D000127A002A11D0002803D03859FAF731FD87
:1057E0003851022E19DA964918310859C207401C5F
:1057F000D20F0851002A07D00FE00028EDD19148C0
:1058000000680028E9D0ECE78D483146483000595F
:1058100001F006FA8A490C3108518B4800250159DC
:1058200087483C300059FAF729FE04D187480059CF
:10583000002800DD0125844801210059C90748409E
:105840007F493C310959FAF719FE06D17F480159C1
:105850000120C007814200D90125022E0BDA7848C9
:105860000C3001593C300059FAF7E3FC400078490C
:105870004008884228DC002D26D17148022154308E
:1058800000590090FAF758FD6D4960310959FAF74F
:105890007FFC6E490D592946FAF77AFC6D49FAF7F3
:1058A000D0FC6D490959FAF7CCFC6C490968FAF744
:1058B000C8FC3959FAF76CFC6149385160310098DD
:1058C000085108460C3805515F480C3001595C48B6
:1058D0002018FEF74DFD6048183007595B483946DF
:1058E0000059FAF7AEFC5C490C3909590091FAF7F6
:1058F000A8FC534D7F2101903C35C9053846FAF785
:1059000098FC0099FAF79DFC554909590391FAF75B
:1059100098FC0199FAF73CFC49490959FAF738FC17
:1059200028514D480C3000590290002801DC2859BC
:1059300072E04C480AA9027807A8002A06D0464A15
:10594000243A12590251444A183A05E03C4A603A56
:10595000125902513A4A543A12590A5100597F22B7
:10596000D2050090904208590190014604AF1046BC
:1059700008DAFAF75EFC0D903B48019900594000A7
:1059800040080BE0FAF755FC0D9000990198FAF7E2
:1059900095FC01463448005940004008FAF751FC94
:1059A0000D99FAF7F5FB3851254824300159039831
:1059B000FAF73FFC0299FAF744FC27494439C969D0
:1059C0000D91FAF73EFC0E901D4830300159183009
:1059D000025901921046FAF72CFC0299FAF731FCB1
:1059E0000099FAF72EFC3959FAF72BFC0D99FAF7C2
:1059F00028FC0E99FAF71DFC1149019A30310A5121
:105A00000F4A0399243211513146FEF7EFFC01464B
:105A10002859FAF7BDFB28510F494439C968FAF7EC
:105A200010FC2851084801596019FEF7A1FC2859BB
:105A30000FB0F0BD7404002048E17A3F0000002060
:105A4000F806002084000020D4700008EC03002039
:105A5000CDCCCC3D7EAA2A3E640200206800002006
:105A6000BC05002095020020F8030020F8B514487A
:105A700001681448FAF722FC134CE06113480168EE
:105A800013480068FAF71AFC7F25124EED053346DD
:105A9000114A12490095FFF76BF8E060B04201DD52
:105AA000E66002E0A84200DAE5600D48C078002810
:105AB00004D00C49E068FAF7C4FBE060F8BD0000D0
:105AC0006800002017B7513B20020020440000204E
:105AD00030000020713DAA3F6666764000002040FD
